{
  "contractName": "CoinFlip",
  "abi": [
    {
      "anonymous": false,
      "inputs": [
        {
          "indexed": false,
          "internalType": "uint256",
          "name": "",
          "type": "uint256"
        }
      ],
      "name": "ammountPaidToPlayer",
      "type": "event"
    },
    {
      "anonymous": false,
      "inputs": [
        {
          "indexed": false,
          "internalType": "address",
          "name": "",
          "type": "address"
        }
      ],
      "name": "coinFlipped",
      "type": "event"
    },
    {
      "constant": true,
      "inputs": [],
      "name": "owner",
      "outputs": [
        {
          "internalType": "address",
          "name": "",
          "type": "address"
        }
      ],
      "payable": false,
      "stateMutability": "view",
      "type": "function"
    },
    {
      "constant": true,
      "inputs": [],
      "name": "random",
      "outputs": [
        {
          "internalType": "uint256",
          "name": "",
          "type": "uint256"
        }
      ],
      "payable": false,
      "stateMutability": "view",
      "type": "function"
    },
    {
      "constant": false,
      "inputs": [],
      "name": "depositBalance",
      "outputs": [],
      "payable": true,
      "stateMutability": "payable",
      "type": "function"
    },
    {
      "constant": false,
      "inputs": [],
      "name": "flipCoin",
      "outputs": [],
      "payable": true,
      "stateMutability": "payable",
      "type": "function"
    },
    {
      "constant": true,
      "inputs": [],
      "name": "getResultOfGame",
      "outputs": [
        {
          "internalType": "uint256",
          "name": "",
          "type": "uint256"
        }
      ],
      "payable": false,
      "stateMutability": "view",
      "type": "function"
    },
    {
      "constant": true,
      "inputs": [],
      "name": "getBalance",
      "outputs": [
        {
          "internalType": "uint256",
          "name": "",
          "type": "uint256"
        }
      ],
      "payable": false,
      "stateMutability": "view",
      "type": "function"
    },
    {
      "constant": false,
      "inputs": [],
      "name": "withdrawAll",
      "outputs": [
        {
          "internalType": "uint256",
          "name": "",
          "type": "uint256"
        }
      ],
      "payable": false,
      "stateMutability": "nonpayable",
      "type": "function"
    }
  ],
  "bytecode": "0x6080604052336000806101000a81548173ffffffffffffffffffffffffffffffffffffffff021916908373ffffffffffffffffffffffffffffffffffffffff160217905550610527806100536000396000f3fe6080604052600436106100705760003560e01c8063750548a41161004e578063750548a4146100d5578063799ae22314610100578063853828b61461010a5780638da5cb5b1461013557610070565b806312065fe0146100755780635ec01e4d146100a057806361bc1a49146100cb575b600080fd5b34801561008157600080fd5b5061008a61018c565b6040518082815260200191505060405180910390f35b3480156100ac57600080fd5b506100b5610196565b6040518082815260200191505060405180910390f35b6100d36101a8565b005b3480156100e157600080fd5b506100ea6101ba565b6040518082815260200191505060405180910390f35b6101086101c4565b005b34801561011657600080fd5b5061011f6103db565b6040518082815260200191505060405180910390f35b34801561014157600080fd5b5061014a610493565b604051808273ffffffffffffffffffffffffffffffffffffffff1673ffffffffffffffffffffffffffffffffffffffff16815260200191505060405180910390f35b6000600254905090565b6000600242816101a257fe5b06905090565b34600260008282540192505081905550565b6000600354905090565b600234026002541015610222576040517f08c379a00000000000000000000000000000000000000000000000000000000081526004018080602001828103825260398152602001806104ba6039913960400191505060405180910390fd5b6000341415610299576040517f08c379a000000000000000000000000000000000000000000000000000000000815260040180806020018281038252601e8152602001807f4e6565647320746f2073656e6420706f7369746976652062616c616e6365000081525060200191505060405180910390fd5b6000600242816102a557fe5b061415610318573373ffffffffffffffffffffffffffffffffffffffff166108fc346002029081150290604051600060405180830381858888f193505050501580156102f5573d6000803e3d6000fd5b506002340260026000828254039250508190555060023402600381905550610331565b3460026000828254019250508190555060006003819055505b7f0d55409f17034330947e9d57486466a080baa240dc41e021d0de2d518fa9ff2033604051808273ffffffffffffffffffffffffffffffffffffffff1673ffffffffffffffffffffffffffffffffffffffff16815260200191505060405180910390a16000600354146103d9577fa88cd32c135a12a66f4301bed0fde3238b8f8850658061e371b6a7094b850af6600234026040518082815260200191505060405180910390a15b565b60008060009054906101000a900473ffffffffffffffffffffffffffffffffffffffff1673ffffffffffffffffffffffffffffffffffffffff163373ffffffffffffffffffffffffffffffffffffffff161461043657600080fd5b6000600254905060006002819055503373ffffffffffffffffffffffffffffffffffffffff166108fc829081150290604051600060405180830381858888f1935050505015801561048b573d6000803e3d6000fd5b508091505090565b600160009054906101000a900473ffffffffffffffffffffffffffffffffffffffff168156fe42616c616e6365206e6565647320746f2068617665206174206c656173742074776963652061732045544820617320677565737420706c6179a265627a7a72315820cd5198dcebf2617c59bf3a22c0ec17ef5756466dbdbd5ec6993bc20200f7932864736f6c634300050c0032",
  "source": "import \"./Ownable.sol\";\r\npragma solidity 0.5.12;\r\n\r\ncontract CoinFlip is Ownable{\r\n\r\n    event coinFlipped(address);\r\n    event ammountPaidToPlayer(uint);\r\n\r\n    address public owner;\r\n    uint private balance;\r\n    uint resultOfGame;\r\n    uint valutToPlayer;\r\n\r\n    function random() public view returns(uint){\r\n        return now % 2;\r\n    }\r\n\r\n    function depositBalance() public payable {\r\n        balance += msg.value;\r\n    }\r\n\r\n    function flipCoin() public payable {\r\n        require(balance >= msg.value * 2, \"Balance needs to have at least twice as ETH as guest play\");\r\n        require(msg.value !=0, \"Needs to send positive balance\");\r\n        if (now % 2 == 0){\r\n            msg.sender.transfer(2*msg.value);\r\n            balance -= (msg.value*2);\r\n            resultOfGame = (msg.value*2);\r\n        }\r\n        else{\r\n            balance += msg.value;\r\n            resultOfGame = 0;\r\n        }\r\n        emit coinFlipped(msg.sender);\r\n        if (resultOfGame != 0) emit ammountPaidToPlayer(msg.value*2);\r\n    }\r\n\r\n    function getResultOfGame() public view returns (uint){\r\n        return resultOfGame;\r\n    }\r\n\r\n    function getBalance() public view returns (uint) {\r\n        return balance;\r\n    }\r\n\r\n    function withdrawAll () public onlyOwner returns(uint) {\r\n        uint toTransfer = balance;\r\n        balance = 0;\r\n        msg.sender.transfer(toTransfer);\r\n        return toTransfer;\r\n    }\r\n}\r\n",
  "sourcePath": "C:/Users/User 1/Dropbox/Ethereum Course Advanced/Coinflip/CoinflipProject/contracts/CoinFlip.sol",
  "compiler": {
    "name": "solc",
    "version": "0.5.12+commit.7709ece9.Emscripten.clang"
  },
  "schemaVersion": "3.0.16",
  "updatedAt": "2020-04-02T12:54:37.091Z",
  "devdoc": {
    "methods": {}
  },
  "userdoc": {
    "methods": {}
  }
}