{
  "contractName": "CoinFlip",
  "abi": [
    {
      "anonymous": false,
      "inputs": [
        {
          "indexed": false,
          "internalType": "uint256",
          "name": "",
          "type": "uint256"
        }
      ],
      "name": "result",
      "type": "event"
    },
    {
      "constant": true,
      "inputs": [],
      "name": "owner",
      "outputs": [
        {
          "internalType": "address",
          "name": "",
          "type": "address"
        }
      ],
      "payable": false,
      "stateMutability": "view",
      "type": "function"
    },
    {
      "constant": true,
      "inputs": [],
      "name": "random",
      "outputs": [
        {
          "internalType": "uint256",
          "name": "",
          "type": "uint256"
        }
      ],
      "payable": false,
      "stateMutability": "view",
      "type": "function"
    },
    {
      "constant": false,
      "inputs": [],
      "name": "depositBalance",
      "outputs": [],
      "payable": true,
      "stateMutability": "payable",
      "type": "function"
    },
    {
      "constant": false,
      "inputs": [],
      "name": "flipCoin",
      "outputs": [],
      "payable": true,
      "stateMutability": "payable",
      "type": "function"
    },
    {
      "constant": true,
      "inputs": [],
      "name": "getBalance",
      "outputs": [
        {
          "internalType": "uint256",
          "name": "",
          "type": "uint256"
        }
      ],
      "payable": false,
      "stateMutability": "view",
      "type": "function"
    },
    {
      "constant": false,
      "inputs": [],
      "name": "withdrawAll",
      "outputs": [
        {
          "internalType": "uint256",
          "name": "",
          "type": "uint256"
        }
      ],
      "payable": false,
      "stateMutability": "nonpayable",
      "type": "function"
    }
  ],
  "bytecode": "0x6080604052336000806101000a81548173ffffffffffffffffffffffffffffffffffffffff021916908373ffffffffffffffffffffffffffffffffffffffff160217905550610493806100536000396000f3fe6080604052600436106100555760003560e01c806312065fe01461005a5780635ec01e4d1461008557806361bc1a49146100b0578063799ae223146100ba578063853828b6146100c45780638da5cb5b146100ef575b600080fd5b34801561006657600080fd5b5061006f610146565b6040518082815260200191505060405180910390f35b34801561009157600080fd5b5061009a610150565b6040518082815260200191505060405180910390f35b6100b8610162565b005b6100c2610174565b005b3480156100d057600080fd5b506100d9610347565b6040518082815260200191505060405180910390f35b3480156100fb57600080fd5b506101046103ff565b604051808273ffffffffffffffffffffffffffffffffffffffff1673ffffffffffffffffffffffffffffffffffffffff16815260200191505060405180910390f35b6000600254905090565b60006002428161015c57fe5b06905090565b34600260008282540192505081905550565b60006002340290508060025410156101d7576040517f08c379a00000000000000000000000000000000000000000000000000000000081526004018080602001828103825260398152602001806104266039913960400191505060405180910390fd5b600034141561024e576040517f08c379a000000000000000000000000000000000000000000000000000000000815260040180806020018281038252601e8152602001807f4e6565647320746f2073656e6420706f7369746976652062616c616e6365000081525060200191505060405180910390fd5b60006002428161025a57fe5b06905060008114156102fa573373ffffffffffffffffffffffffffffffffffffffff166108fc839081150290604051600060405180830381858888f193505050501580156102ac573d6000803e3d6000fd5b50816002600082825403925050819055507f3c594059b67a9d0d160221fccc93d9a38d53897fdcdac714252b4afe7014991a60006040518082815260200191505060405180910390a1610343565b346002600082825401925050819055507f3c594059b67a9d0d160221fccc93d9a38d53897fdcdac714252b4afe7014991a60016040518082815260200191505060405180910390a15b5050565b60008060009054906101000a900473ffffffffffffffffffffffffffffffffffffffff1673ffffffffffffffffffffffffffffffffffffffff163373ffffffffffffffffffffffffffffffffffffffff16146103a257600080fd5b6000600254905060006002819055503373ffffffffffffffffffffffffffffffffffffffff166108fc829081150290604051600060405180830381858888f193505050501580156103f7573d6000803e3d6000fd5b508091505090565b600160009054906101000a900473ffffffffffffffffffffffffffffffffffffffff168156fe42616c616e6365206e6565647320746f2068617665206174206c656173742074776963652061732045544820617320677565737420706c6179a265627a7a7231582001759ae3e659ba5dc12cf855dd8f253e3a28d484363443aee85f3d5e67fdac2c64736f6c634300050c0032",
  "source": "import \"./Ownable.sol\";\r\npragma solidity 0.5.12;\r\n\r\ncontract CoinFlip is Ownable{\r\n\r\n    event result (uint);\r\n\r\n    address public owner;\r\n    uint private balance;\r\n\r\n    function random() public view returns(uint){\r\n        return now % 2;\r\n    }\r\n\r\n    function depositBalance() public payable {\r\n        balance += msg.value;\r\n    }\r\n\r\n    function flipCoin() public payable {\r\n        uint valueToPlayer = msg.value*2;\r\n\r\n        require(balance >= valueToPlayer, \"Balance needs to have at least twice as ETH as guest play\");\r\n        require(msg.value != 0, \"Needs to send positive balance\");\r\n\r\n        uint resultOfGame = now % 2;\r\n        if (resultOfGame == 0){\r\n            msg.sender.transfer(valueToPlayer);\r\n            balance -= (valueToPlayer);\r\n            emit result (0);\r\n        }\r\n        else{\r\n        balance += msg.value;\r\n        emit result (1);\r\n        }\r\n    }\r\n\r\n    function getBalance() public view returns (uint) {\r\n        return balance;\r\n    }\r\n\r\n    function withdrawAll () public onlyOwner returns(uint) {\r\n        uint toTransfer = balance;\r\n        balance = 0;\r\n        msg.sender.transfer(toTransfer);\r\n        return toTransfer;\r\n    }\r\n}\r\n",
  "sourcePath": "C:/Users/User 1/Dropbox/Ethereum Course Advanced/Coinflip/CoinflipProject/contracts/CoinFlip.sol",
  "compiler": {
    "name": "solc",
    "version": "0.5.12+commit.7709ece9.Emscripten.clang"
  },
  "schemaVersion": "3.0.16",
  "updatedAt": "2020-04-05T21:49:07.369Z",
  "devdoc": {
    "methods": {}
  },
  "userdoc": {
    "methods": {}
  }
}