{
  "contractName": "CoinFlip",
  "abi": [
    {
      "inputs": [],
      "payable": true,
      "stateMutability": "payable",
      "type": "constructor"
    },
    {
      "anonymous": false,
      "inputs": [
        {
          "indexed": false,
          "internalType": "uint256",
          "name": "",
          "type": "uint256"
        }
      ],
      "name": "ammountPaidToPlayer",
      "type": "event"
    },
    {
      "anonymous": false,
      "inputs": [
        {
          "indexed": false,
          "internalType": "address",
          "name": "",
          "type": "address"
        }
      ],
      "name": "coinFlipped",
      "type": "event"
    },
    {
      "constant": true,
      "inputs": [],
      "name": "owner",
      "outputs": [
        {
          "internalType": "address",
          "name": "",
          "type": "address"
        }
      ],
      "payable": false,
      "stateMutability": "view",
      "type": "function"
    },
    {
      "constant": true,
      "inputs": [],
      "name": "random",
      "outputs": [
        {
          "internalType": "uint256",
          "name": "",
          "type": "uint256"
        }
      ],
      "payable": false,
      "stateMutability": "view",
      "type": "function"
    },
    {
      "constant": false,
      "inputs": [],
      "name": "flipCoin",
      "outputs": [
        {
          "internalType": "uint256",
          "name": "",
          "type": "uint256"
        }
      ],
      "payable": true,
      "stateMutability": "payable",
      "type": "function"
    },
    {
      "constant": true,
      "inputs": [],
      "name": "getResultOfGame",
      "outputs": [
        {
          "internalType": "uint256",
          "name": "",
          "type": "uint256"
        }
      ],
      "payable": false,
      "stateMutability": "view",
      "type": "function"
    },
    {
      "constant": true,
      "inputs": [],
      "name": "getBalance",
      "outputs": [
        {
          "internalType": "uint256",
          "name": "",
          "type": "uint256"
        }
      ],
      "payable": false,
      "stateMutability": "view",
      "type": "function"
    },
    {
      "constant": false,
      "inputs": [],
      "name": "withdrawAll",
      "outputs": [
        {
          "internalType": "uint256",
          "name": "",
          "type": "uint256"
        }
      ],
      "payable": true,
      "stateMutability": "payable",
      "type": "function"
    }
  ],
  "bytecode": "0x6080604052336000806101000a81548173ffffffffffffffffffffffffffffffffffffffff021916908373ffffffffffffffffffffffffffffffffffffffff16021790555033600160006101000a81548173ffffffffffffffffffffffffffffffffffffffff021916908373ffffffffffffffffffffffffffffffffffffffff1602179055506104bb806100946000396000f3fe6080604052600436106100555760003560e01c806312065fe01461005a5780635ec01e4d14610085578063750548a4146100b0578063799ae223146100db578063853828b6146100f95780638da5cb5b14610117575b600080fd5b34801561006657600080fd5b5061006f61016e565b6040518082815260200191505060405180910390f35b34801561009157600080fd5b5061009a6101d1565b6040518082815260200191505060405180910390f35b3480156100bc57600080fd5b506100c56101e3565b6040518082815260200191505060405180910390f35b6100e36101ed565b6040518082815260200191505060405180910390f35b6101016103a8565b6040518082815260200191505060405180910390f35b34801561012357600080fd5b5061012c610460565b604051808273ffffffffffffffffffffffffffffffffffffffff1673ffffffffffffffffffffffffffffffffffffffff16815260200191505060405180910390f35b60008060009054906101000a900473ffffffffffffffffffffffffffffffffffffffff1673ffffffffffffffffffffffffffffffffffffffff163373ffffffffffffffffffffffffffffffffffffffff16146101c957600080fd5b600254905090565b6000600242816101dd57fe5b06905090565b6000600354905090565b600080339050600034141561026a576040517f08c379a000000000000000000000000000000000000000000000000000000000815260040180806020018281038252601e8152602001807f4e6565647320746f2073656e6420706f7369746976652062616c616e6365000081525060200191505060405180910390fd5b600034905060006002428161027b57fe5b0614156102e357806002026004819055508173ffffffffffffffffffffffffffffffffffffffff166108fc6004549081150290604051600060405180830381858888f193505050501580156102d4573d6000803e3d6000fd5b506004546003819055506102fc565b3460026000828254019250508190555060006003819055505b7f0d55409f17034330947e9d57486466a080baa240dc41e021d0de2d518fa9ff2033604051808273ffffffffffffffffffffffffffffffffffffffff1673ffffffffffffffffffffffffffffffffffffffff16815260200191505060405180910390a16000600354146103a3577fa88cd32c135a12a66f4301bed0fde3238b8f8850658061e371b6a7094b850af66004546040518082815260200191505060405180910390a15b505090565b60008060009054906101000a900473ffffffffffffffffffffffffffffffffffffffff1673ffffffffffffffffffffffffffffffffffffffff163373ffffffffffffffffffffffffffffffffffffffff161461040357600080fd5b6000600254905060006002819055503373ffffffffffffffffffffffffffffffffffffffff166108fc829081150290604051600060405180830381858888f19350505050158015610458573d6000803e3d6000fd5b508091505090565b600160009054906101000a900473ffffffffffffffffffffffffffffffffffffffff168156fea265627a7a72315820f736de94f640247ed4fc7c7964a94d51227c063266343edf9b8c882b212a5c6d64736f6c634300050c0032",
  "source": "import \"./Ownable.sol\";\r\npragma solidity 0.5.12;\r\n\r\ncontract CoinFlip is Ownable{\r\n\r\n  constructor() public payable{\r\n      owner = msg.sender;\r\n  }\r\n    // Let's create an event everytime someone \"flips a coin\", giving us his address:\r\n    event coinFlipped(address);\r\n    // And an event with how much was paid to the player:\r\n    event ammountPaidToPlayer(uint);\r\n\r\n    address public owner;\r\n\r\n    uint private balance;\r\n\r\n    // Variable for the result of the game:\r\n    uint resultOfGame;\r\n\r\n    // Variable for the ammount paid to the player:\r\n    uint valueToPlayer;\r\n\r\n    // Function with some pseudo randomness, given by Filip:\r\n    function random() public view returns(uint){\r\n        return now % 2;\r\n    }\r\n\r\n    // Let's create a function that flips the coin. It has to be payable.\r\n    function flipCoin() public payable returns(uint){\r\n\r\n        address payable player = msg.sender;\r\n\r\n        // It should cost more than 0 ether:\r\n        require(msg.value != 0, \"Needs to send positive balance\");\r\n\r\n        // ethAmmount should be the value sent by the user:\r\n        uint ethAmmount = msg.value;\r\n\r\n        // The result of random() can either be 0 or 1. If it is 0 we send the funds (double) to the player. If it is 1, we keep it:\r\n        if (now % 2 == 0){\r\n            // send to the player:\r\n            valueToPlayer = 2*ethAmmount;\r\n            player.transfer(valueToPlayer);\r\n            resultOfGame = valueToPlayer;\r\n        }\r\n        else{\r\n        // keep the funds and update the balance:\r\n        balance += msg.value;\r\n        resultOfGame = 0;\r\n        }\r\n\r\n        // Here we can sent out the event when someone uses the app:\r\n        emit coinFlipped(msg.sender); // This is who called the function\r\n        // Here we can sent out the event with the ammount paid to the player:\r\n        if (resultOfGame != 0) emit ammountPaidToPlayer(valueToPlayer);\r\n    }\r\n\r\n    // Let's write a function to send the data to the browser:\r\n    function getResultOfGame() public view returns (uint) {\r\n        return resultOfGame;\r\n    }\r\n\r\n    // Let's write a function that gets the balance of an address:\r\n    function getBalance() public view onlyOwner returns (uint) {\r\n        return balance;\r\n    }\r\n\r\n    // Let's create a function to withdraw all the funds, but only the owner!\r\n    function withdrawAll () public onlyOwner payable returns(uint) {\r\n        uint toTransfer = balance;\r\n        balance = 0;\r\n        msg.sender.transfer(toTransfer);\r\n        return toTransfer;\r\n    }\r\n}\r\n",
  "sourcePath": "C:/Users/User 1/Dropbox/Ethereum Course Advanced/Coinflip/CoinflipProject/contracts/CoinFlip.sol",
  "compiler": {
    "name": "solc",
    "version": "0.5.12+commit.7709ece9.Emscripten.clang"
  },
  "schemaVersion": "3.0.16",
  "updatedAt": "2020-03-31T00:37:58.066Z",
  "devdoc": {
    "methods": {}
  },
  "userdoc": {
    "methods": {}
  }
}