{
  "contractName": "CoinFlip",
  "abi": [
    {
      "anonymous": false,
      "inputs": [
        {
          "indexed": false,
          "internalType": "address",
          "name": "",
          "type": "address"
        }
      ],
      "name": "coinFlipped",
      "type": "event"
    },
    {
      "constant": true,
      "inputs": [],
      "name": "owner",
      "outputs": [
        {
          "internalType": "address",
          "name": "",
          "type": "address"
        }
      ],
      "payable": false,
      "stateMutability": "view",
      "type": "function"
    },
    {
      "constant": true,
      "inputs": [],
      "name": "random",
      "outputs": [
        {
          "internalType": "uint256",
          "name": "",
          "type": "uint256"
        }
      ],
      "payable": false,
      "stateMutability": "view",
      "type": "function"
    },
    {
      "constant": false,
      "inputs": [],
      "name": "flipCoin",
      "outputs": [
        {
          "internalType": "uint256",
          "name": "",
          "type": "uint256"
        }
      ],
      "payable": true,
      "stateMutability": "payable",
      "type": "function"
    },
    {
      "constant": true,
      "inputs": [],
      "name": "getBalance",
      "outputs": [
        {
          "internalType": "uint256",
          "name": "",
          "type": "uint256"
        }
      ],
      "payable": false,
      "stateMutability": "view",
      "type": "function"
    },
    {
      "constant": false,
      "inputs": [],
      "name": "withdrawAll",
      "outputs": [
        {
          "internalType": "uint256",
          "name": "",
          "type": "uint256"
        }
      ],
      "payable": false,
      "stateMutability": "nonpayable",
      "type": "function"
    }
  ],
  "bytecode": "0x6080604052336000806101000a81548173ffffffffffffffffffffffffffffffffffffffff021916908373ffffffffffffffffffffffffffffffffffffffff160217905550610435806100536000396000f3fe60806040526004361061004a5760003560e01c806312065fe01461004f5780635ec01e4d1461007a578063799ae223146100a5578063853828b6146100c35780638da5cb5b146100ee575b600080fd5b34801561005b57600080fd5b50610064610145565b6040518082815260200191505060405180910390f35b34801561008657600080fd5b5061008f6101a8565b6040518082815260200191505060405180910390f35b6100ad6101ba565b6040518082815260200191505060405180910390f35b3480156100cf57600080fd5b506100d8610322565b6040518082815260200191505060405180910390f35b3480156100fa57600080fd5b506101036103da565b604051808273ffffffffffffffffffffffffffffffffffffffff1673ffffffffffffffffffffffffffffffffffffffff16815260200191505060405180910390f35b60008060009054906101000a900473ffffffffffffffffffffffffffffffffffffffff1673ffffffffffffffffffffffffffffffffffffffff163373ffffffffffffffffffffffffffffffffffffffff16146101a057600080fd5b600254905090565b6000600242816101b457fe5b06905090565b6000803390506000341415610237576040517f08c379a000000000000000000000000000000000000000000000000000000000815260040180806020018281038252601e8152602001807f4e6565647320746f2073656e6420706f7369746976652062616c616e6365000081525060200191505060405180910390fd5b600034905060006002428161024857fe5b0614156102a95760008160020290508273ffffffffffffffffffffffffffffffffffffffff166108fc829081150290604051600060405180830381858888f1935050505015801561029d573d6000803e3d6000fd5b5080935050505061031f565b346002600082825401925050819055507f0d55409f17034330947e9d57486466a080baa240dc41e021d0de2d518fa9ff2033604051808273ffffffffffffffffffffffffffffffffffffffff1673ffffffffffffffffffffffffffffffffffffffff16815260200191505060405180910390a150505b90565b60008060009054906101000a900473ffffffffffffffffffffffffffffffffffffffff1673ffffffffffffffffffffffffffffffffffffffff163373ffffffffffffffffffffffffffffffffffffffff161461037d57600080fd5b6000600254905060006002819055503373ffffffffffffffffffffffffffffffffffffffff166108fc829081150290604051600060405180830381858888f193505050501580156103d2573d6000803e3d6000fd5b508091505090565b600160009054906101000a900473ffffffffffffffffffffffffffffffffffffffff168156fea265627a7a72315820836b8e720cd283557f15e284f39dee41fac79e4ccfd55a87d105ff8c8c00f32764736f6c634300050c0032",
  "source": "import \"./Ownable.sol\";\r\npragma solidity 0.5.12;\r\n\r\ncontract CoinFlip is Ownable{\r\n\r\n    // Let's create an event everytime someone \"flips a coin\", giving us his address:\r\n    event coinFlipped(address);\r\n    /* And an event with how much was paid to the player:\r\n    event ammountPaidToPlayer(uint); CAN'T GET IT TO WORK */\r\n\r\n    address public owner;\r\n\r\n    uint private balance;\r\n\r\n    bool playerGotPaid; // For the event\r\n\r\n    // Function with some pseudo randomness, given by Filip:\r\n    function random() public view returns(uint){\r\n        return now % 2;\r\n    }\r\n\r\n    // Let's create a function that flips the coin. It has to be payable.\r\n    function flipCoin() public payable returns(uint){\r\n\r\n        address payable player = msg.sender;\r\n\r\n        // It should cost more than 0 ether:\r\n        require(msg.value != 0, \"Needs to send positive balance\");\r\n\r\n        // ethAmmount should be the value sent by the user:\r\n        uint ethAmmount = msg.value;\r\n\r\n        // The result of random() can either be 0 or 1. If it is 0 we send the funds (double) to the player. If it is 1, we keep it:\r\n        if (now % 2 == 0){\r\n            // send to the player:\r\n            uint valueToPlayer = 2*ethAmmount;\r\n            player.transfer(valueToPlayer);\r\n            return valueToPlayer;\r\n            // playerGotPaid = true; THIS WOULD BE FOR THE EVENT BUT CAN'T GET IT TO WORK. \"unreachable code\"\r\n        }\r\n        else{\r\n        // keep the funds and update the balance:\r\n        balance += msg.value;\r\n        }\r\n\r\n        // Here we can sent out the event when someone uses the app:\r\n        emit coinFlipped(msg.sender); // This is who called the function\r\n        /* Here we can sent out the event with the ammount paid to the player:\r\n        if (playerGotPaid = true) emit ammountPaidToPlayer(valueToPlayer); CAN'T GET IT TO WORK */\r\n    }\r\n\r\n    // Let's write a function that gets the balance of an address:\r\n    function getBalance() public view onlyOwner returns (uint) {\r\n        return balance;\r\n    }\r\n\r\n    // Let's create a function to withdraw all the funds, but only the owner!\r\n    function withdrawAll () public onlyOwner returns(uint) {\r\n        uint toTransfer = balance;\r\n        balance = 0;\r\n        msg.sender.transfer(toTransfer);\r\n        return toTransfer;\r\n    }\r\n}\r\n",
  "sourcePath": "C:/Users/User 1/Dropbox/Ethereum Course Advanced/Coinflip/CoinflipProject/contracts/CoinFlip.sol",
  "compiler": {
    "name": "solc",
    "version": "0.5.12+commit.7709ece9.Emscripten.clang"
  },
  "schemaVersion": "3.0.16",
  "updatedAt": "2020-03-23T15:34:33.981Z",
  "devdoc": {
    "methods": {}
  },
  "userdoc": {
    "methods": {}
  }
}